{
  "_format": "hh-sol-artifact-1",
  "contractName": "Damazon",
  "sourceName": "contracts/Damazon.sol",
  "abi": [
    {
      "inputs": [
        {
          "internalType": "string",
          "name": "name",
          "type": "string"
        }
      ],
      "stateMutability": "nonpayable",
      "type": "constructor"
    },
    {
      "inputs": [],
      "name": "Damazon__NotEnoughEthSent",
      "type": "error"
    },
    {
      "inputs": [],
      "name": "Damazon__NotOwner",
      "type": "error"
    },
    {
      "inputs": [],
      "name": "Damazon__OutOfStock",
      "type": "error"
    },
    {
      "inputs": [],
      "name": "Damazon__TransactionFailed",
      "type": "error"
    },
    {
      "anonymous": false,
      "inputs": [
        {
          "indexed": true,
          "internalType": "address",
          "name": "_buyer",
          "type": "address"
        },
        {
          "indexed": true,
          "internalType": "uint256",
          "name": "_orderCount",
          "type": "uint256"
        },
        {
          "indexed": true,
          "internalType": "uint256",
          "name": "_itemId",
          "type": "uint256"
        }
      ],
      "name": "Buy_Item",
      "type": "event"
    },
    {
      "anonymous": false,
      "inputs": [
        {
          "indexed": true,
          "internalType": "string",
          "name": "_name",
          "type": "string"
        },
        {
          "indexed": true,
          "internalType": "uint256",
          "name": "_cost",
          "type": "uint256"
        },
        {
          "indexed": true,
          "internalType": "uint256",
          "name": "_quantity",
          "type": "uint256"
        }
      ],
      "name": "Item_Listed",
      "type": "event"
    },
    {
      "inputs": [
        {
          "internalType": "uint256",
          "name": "_id",
          "type": "uint256"
        }
      ],
      "name": "Buy",
      "outputs": [],
      "stateMutability": "payable",
      "type": "function"
    },
    {
      "inputs": [
        {
          "internalType": "uint256",
          "name": "_id",
          "type": "uint256"
        },
        {
          "internalType": "string",
          "name": "_name",
          "type": "string"
        },
        {
          "internalType": "string",
          "name": "_category",
          "type": "string"
        },
        {
          "internalType": "string",
          "name": "_image",
          "type": "string"
        },
        {
          "internalType": "uint256",
          "name": "_cost",
          "type": "uint256"
        },
        {
          "internalType": "uint256",
          "name": "_rating",
          "type": "uint256"
        },
        {
          "internalType": "uint256",
          "name": "_stock",
          "type": "uint256"
        }
      ],
      "name": "List",
      "outputs": [],
      "stateMutability": "nonpayable",
      "type": "function"
    },
    {
      "inputs": [],
      "name": "getName",
      "outputs": [
        {
          "internalType": "string",
          "name": "",
          "type": "string"
        }
      ],
      "stateMutability": "view",
      "type": "function"
    },
    {
      "inputs": [],
      "name": "getOwner",
      "outputs": [
        {
          "internalType": "address",
          "name": "",
          "type": "address"
        }
      ],
      "stateMutability": "view",
      "type": "function"
    },
    {
      "inputs": [
        {
          "internalType": "uint256",
          "name": "",
          "type": "uint256"
        }
      ],
      "name": "items",
      "outputs": [
        {
          "internalType": "uint256",
          "name": "id",
          "type": "uint256"
        },
        {
          "internalType": "string",
          "name": "name",
          "type": "string"
        },
        {
          "internalType": "string",
          "name": "category",
          "type": "string"
        },
        {
          "internalType": "string",
          "name": "image",
          "type": "string"
        },
        {
          "internalType": "uint256",
          "name": "cost",
          "type": "uint256"
        },
        {
          "internalType": "uint256",
          "name": "rating",
          "type": "uint256"
        },
        {
          "internalType": "uint256",
          "name": "stock",
          "type": "uint256"
        }
      ],
      "stateMutability": "view",
      "type": "function"
    },
    {
      "inputs": [
        {
          "internalType": "address",
          "name": "",
          "type": "address"
        }
      ],
      "name": "orderCount",
      "outputs": [
        {
          "internalType": "uint256",
          "name": "",
          "type": "uint256"
        }
      ],
      "stateMutability": "view",
      "type": "function"
    },
    {
      "inputs": [
        {
          "internalType": "address",
          "name": "",
          "type": "address"
        },
        {
          "internalType": "uint256",
          "name": "",
          "type": "uint256"
        }
      ],
      "name": "orders",
      "outputs": [
        {
          "internalType": "uint256",
          "name": "time",
          "type": "uint256"
        },
        {
          "components": [
            {
              "internalType": "uint256",
              "name": "id",
              "type": "uint256"
            },
            {
              "internalType": "string",
              "name": "name",
              "type": "string"
            },
            {
              "internalType": "string",
              "name": "category",
              "type": "string"
            },
            {
              "internalType": "string",
              "name": "image",
              "type": "string"
            },
            {
              "internalType": "uint256",
              "name": "cost",
              "type": "uint256"
            },
            {
              "internalType": "uint256",
              "name": "rating",
              "type": "uint256"
            },
            {
              "internalType": "uint256",
              "name": "stock",
              "type": "uint256"
            }
          ],
          "internalType": "struct Damazon.Item",
          "name": "item",
          "type": "tuple"
        }
      ],
      "stateMutability": "view",
      "type": "function"
    },
    {
      "inputs": [],
      "name": "withdraw",
      "outputs": [],
      "stateMutability": "nonpayable",
      "type": "function"
    }
  ],
  "bytecode": "0x60a06040523480156200001157600080fd5b5060405162001a2338038062001a238339818101604052810190620000379190620001bc565b80600090805190602001906200004f9291906200008e565b503373ffffffffffffffffffffffffffffffffffffffff1660808173ffffffffffffffffffffffffffffffffffffffff1660601b815250505062000391565b8280546200009c90620002a2565b90600052602060002090601f016020900481019282620000c057600085556200010c565b82601f10620000db57805160ff19168380011785556200010c565b828001600101855582156200010c579182015b828111156200010b578251825591602001919060010190620000ee565b5b5090506200011b91906200011f565b5090565b5b808211156200013a57600081600090555060010162000120565b5090565b6000620001556200014f8462000236565b6200020d565b90508281526020810184848401111562000174576200017362000371565b5b620001818482856200026c565b509392505050565b600082601f830112620001a157620001a06200036c565b5b8151620001b38482602086016200013e565b91505092915050565b600060208284031215620001d557620001d46200037b565b5b600082015167ffffffffffffffff811115620001f657620001f562000376565b5b620002048482850162000189565b91505092915050565b6000620002196200022c565b9050620002278282620002d8565b919050565b6000604051905090565b600067ffffffffffffffff8211156200025457620002536200033d565b5b6200025f8262000380565b9050602081019050919050565b60005b838110156200028c5780820151818401526020810190506200026f565b838111156200029c576000848401525b50505050565b60006002820490506001821680620002bb57607f821691505b60208210811415620002d257620002d16200030e565b5b50919050565b620002e38262000380565b810181811067ffffffffffffffff821117156200030557620003046200033d565b5b80604052505050565b7f4e487b7100000000000000000000000000000000000000000000000000000000600052602260045260246000fd5b7f4e487b7100000000000000000000000000000000000000000000000000000000600052604160045260246000fd5b600080fd5b600080fd5b600080fd5b600080fd5b6000601f19601f8301169050919050565b60805160601c61165e620003c5600039600081816101f101528181610423015281816104aa0152610c5a015261165e6000f3fe60806040526004361061007a5760003560e01c8063713d856b1161004e578063713d856b14610106578063793b8c6d14610143578063893d20e814610181578063bfb231d2146101ac5761007a565b8062187f561461007f57806317d7de7c146100a85780633ccfd60b146100d35780633e328218146100ea575b600080fd5b34801561008b57600080fd5b506100a660048036038101906100a1919061102f565b6101ef565b005b3480156100b457600080fd5b506100bd61038f565b6040516100ca9190611309565b60405180910390f35b3480156100df57600080fd5b506100e8610421565b005b61010460048036038101906100ff9190611002565b61056c565b005b34801561011257600080fd5b5061012d60048036038101906101289190610f95565b610a25565b60405161013a919061132b565b60405180910390f35b34801561014f57600080fd5b5061016a60048036038101906101659190610fc2565b610a3d565b6040516101789291906113ca565b60405180910390f35b34801561018d57600080fd5b50610196610c56565b6040516101a391906112ee565b60405180910390f35b3480156101b857600080fd5b506101d360048036038101906101ce9190611002565b610c7e565b6040516101e69796959493929190611346565b60405180910390f35b7f000000000000000000000000000000000000000000000000000000000000000073ffffffffffffffffffffffffffffffffffffffff163373ffffffffffffffffffffffffffffffffffffffff1614610274576040517f0a2869f400000000000000000000000000000000000000000000000000000000815260040160405180910390fd5b60006040518060e0016040528089815260200188815260200187815260200186815260200185815260200184815260200183815250905080600160008a81526020019081526020016000206000820151816000015560208201518160010190805190602001906102e5929190610e58565b506040820151816002019080519060200190610302929190610e58565b50606082015181600301908051906020019061031f929190610e58565b506080820151816004015560a0820151816005015560c0820151816006015590505081848860405161035191906112c2565b60405180910390207f0ba7a4ecab881a8a08cb87846c42fdf7e28c4fcae5aaf641bd18d107bd1f5ee460405160405180910390a45050505050505050565b60606000805461039e90611511565b80601f01602080910402602001604051908101604052809291908181526020018280546103ca90611511565b80156104175780601f106103ec57610100808354040283529160200191610417565b820191906000526020600020905b8154815290600101906020018083116103fa57829003601f168201915b5050505050905090565b7f000000000000000000000000000000000000000000000000000000000000000073ffffffffffffffffffffffffffffffffffffffff163373ffffffffffffffffffffffffffffffffffffffff16146104a6576040517f0a2869f400000000000000000000000000000000000000000000000000000000815260040160405180910390fd5b60007f000000000000000000000000000000000000000000000000000000000000000073ffffffffffffffffffffffffffffffffffffffff16476040516104ec906112d9565b60006040518083038185875af1925050503d8060008114610529576040519150601f19603f3d011682016040523d82523d6000602084013e61052e565b606091505b5050905080610569576040517f7b22975400000000000000000000000000000000000000000000000000000000815260040160405180910390fd5b50565b6000600160008381526020019081526020016000206040518060e0016040529081600082015481526020016001820180546105a690611511565b80601f01602080910402602001604051908101604052809291908181526020018280546105d290611511565b801561061f5780601f106105f45761010080835404028352916020019161061f565b820191906000526020600020905b81548152906001019060200180831161060257829003601f168201915b5050505050815260200160028201805461063890611511565b80601f016020809104026020016040519081016040528092919081815260200182805461066490611511565b80156106b15780601f10610686576101008083540402835291602001916106b1565b820191906000526020600020905b81548152906001019060200180831161069457829003601f168201915b505050505081526020016003820180546106ca90611511565b80601f01602080910402602001604051908101604052809291908181526020018280546106f690611511565b80156107435780601f1061071857610100808354040283529160200191610743565b820191906000526020600020905b81548152906001019060200180831161072657829003601f168201915b505050505081526020016004820154815260200160058201548152602001600682015481525050905060008160c0015114156107ab576040517fac4edaa900000000000000000000000000000000000000000000000000000000815260040160405180910390fd5b80608001513410156107e9576040517fd8c8b93200000000000000000000000000000000000000000000000000000000815260040160405180910390fd5b60006040518060400160405280428152602001838152509050600260003373ffffffffffffffffffffffffffffffffffffffff1673ffffffffffffffffffffffffffffffffffffffff168152602001908152602001600020600081546001019190508190555080600360003373ffffffffffffffffffffffffffffffffffffffff1673ffffffffffffffffffffffffffffffffffffffff1681526020019081526020016000206000600260003373ffffffffffffffffffffffffffffffffffffffff1673ffffffffffffffffffffffffffffffffffffffff16815260200190815260200160002054815260200190815260200160002060008201518160000155602082015181600101600082015181600001556020820151816001019080519060200190610918929190610e58565b506040820151816002019080519060200190610935929190610e58565b506060820151816003019080519060200190610952929190610e58565b506080820151816004015560a0820151816005015560c08201518160060155505090505060018260c001510360016000858152602001908152602001600020600601819055508160000151600260003373ffffffffffffffffffffffffffffffffffffffff1673ffffffffffffffffffffffffffffffffffffffff168152602001908152602001600020543373ffffffffffffffffffffffffffffffffffffffff167f70c58d8f59c8d124e23304b87093a9a4194036b3b6bc39fd9ec25976a4936c8560405160405180910390a4505050565b60026020528060005260406000206000915090505481565b600360205281600052604060002060205280600052604060002060009150915050806000015490806001016040518060e001604052908160008201548152602001600182018054610a8d90611511565b80601f0160208091040260200160405190810160405280929190818152602001828054610ab990611511565b8015610b065780601f10610adb57610100808354040283529160200191610b06565b820191906000526020600020905b815481529060010190602001808311610ae957829003601f168201915b50505050508152602001600282018054610b1f90611511565b80601f0160208091040260200160405190810160405280929190818152602001828054610b4b90611511565b8015610b985780601f10610b6d57610100808354040283529160200191610b98565b820191906000526020600020905b815481529060010190602001808311610b7b57829003601f168201915b50505050508152602001600382018054610bb190611511565b80601f0160208091040260200160405190810160405280929190818152602001828054610bdd90611511565b8015610c2a5780601f10610bff57610100808354040283529160200191610c2a565b820191906000526020600020905b815481529060010190602001808311610c0d57829003601f168201915b505050505081526020016004820154815260200160058201548152602001600682015481525050905082565b60007f0000000000000000000000000000000000000000000000000000000000000000905090565b6001602052806000526040600020600091509050806000015490806001018054610ca790611511565b80601f0160208091040260200160405190810160405280929190818152602001828054610cd390611511565b8015610d205780601f10610cf557610100808354040283529160200191610d20565b820191906000526020600020905b815481529060010190602001808311610d0357829003601f168201915b505050505090806002018054610d3590611511565b80601f0160208091040260200160405190810160405280929190818152602001828054610d6190611511565b8015610dae5780601f10610d8357610100808354040283529160200191610dae565b820191906000526020600020905b815481529060010190602001808311610d9157829003601f168201915b505050505090806003018054610dc390611511565b80601f0160208091040260200160405190810160405280929190818152602001828054610def90611511565b8015610e3c5780601f10610e1157610100808354040283529160200191610e3c565b820191906000526020600020905b815481529060010190602001808311610e1f57829003601f168201915b5050505050908060040154908060050154908060060154905087565b828054610e6490611511565b90600052602060002090601f016020900481019282610e865760008555610ecd565b82601f10610e9f57805160ff1916838001178555610ecd565b82800160010185558215610ecd579182015b82811115610ecc578251825591602001919060010190610eb1565b5b509050610eda9190610ede565b5090565b5b80821115610ef7576000816000905550600101610edf565b5090565b6000610f0e610f098461141f565b6113fa565b905082815260208101848484011115610f2a57610f296115d7565b5b610f358482856114cf565b509392505050565b600081359050610f4c816115fa565b92915050565b600082601f830112610f6757610f666115d2565b5b8135610f77848260208601610efb565b91505092915050565b600081359050610f8f81611611565b92915050565b600060208284031215610fab57610faa6115e1565b5b6000610fb984828501610f3d565b91505092915050565b60008060408385031215610fd957610fd86115e1565b5b6000610fe785828601610f3d565b9250506020610ff885828601610f80565b9150509250929050565b600060208284031215611018576110176115e1565b5b600061102684828501610f80565b91505092915050565b600080600080600080600060e0888a03121561104e5761104d6115e1565b5b600061105c8a828b01610f80565b975050602088013567ffffffffffffffff81111561107d5761107c6115dc565b5b6110898a828b01610f52565b965050604088013567ffffffffffffffff8111156110aa576110a96115dc565b5b6110b68a828b01610f52565b955050606088013567ffffffffffffffff8111156110d7576110d66115dc565b5b6110e38a828b01610f52565b94505060806110f48a828b01610f80565b93505060a06111058a828b01610f80565b92505060c06111168a828b01610f80565b91505092959891949750929550565b61112e81611493565b82525050565b600061113f82611450565b6111498185611466565b93506111598185602086016114de565b611162816115e6565b840191505092915050565b600061117882611450565b6111828185611477565b93506111928185602086016114de565b61119b816115e6565b840191505092915050565b60006111b182611450565b6111bb8185611488565b93506111cb8185602086016114de565b80840191505092915050565b60006111e460008361145b565b91506111ef826115f7565b600082019050919050565b600060e08301600083015161121260008601826112a4565b506020830151848203602086015261122a8282611134565b915050604083015184820360408601526112448282611134565b9150506060830151848203606086015261125e8282611134565b915050608083015161127360808601826112a4565b5060a083015161128660a08601826112a4565b5060c083015161129960c08601826112a4565b508091505092915050565b6112ad816114c5565b82525050565b6112bc816114c5565b82525050565b60006112ce82846111a6565b915081905092915050565b60006112e4826111d7565b9150819050919050565b60006020820190506113036000830184611125565b92915050565b60006020820190508181036000830152611323818461116d565b905092915050565b600060208201905061134060008301846112b3565b92915050565b600060e08201905061135b600083018a6112b3565b818103602083015261136d818961116d565b90508181036040830152611381818861116d565b90508181036060830152611395818761116d565b90506113a460808301866112b3565b6113b160a08301856112b3565b6113be60c08301846112b3565b98975050505050505050565b60006040820190506113df60008301856112b3565b81810360208301526113f181846111fa565b90509392505050565b6000611404611415565b90506114108282611543565b919050565b6000604051905090565b600067ffffffffffffffff82111561143a576114396115a3565b5b611443826115e6565b9050602081019050919050565b600081519050919050565b600081905092915050565b600082825260208201905092915050565b600082825260208201905092915050565b600081905092915050565b600061149e826114a5565b9050919050565b600073ffffffffffffffffffffffffffffffffffffffff82169050919050565b6000819050919050565b82818337600083830152505050565b60005b838110156114fc5780820151818401526020810190506114e1565b8381111561150b576000848401525b50505050565b6000600282049050600182168061152957607f821691505b6020821081141561153d5761153c611574565b5b50919050565b61154c826115e6565b810181811067ffffffffffffffff8211171561156b5761156a6115a3565b5b80604052505050565b7f4e487b7100000000000000000000000000000000000000000000000000000000600052602260045260246000fd5b7f4e487b7100000000000000000000000000000000000000000000000000000000600052604160045260246000fd5b600080fd5b600080fd5b600080fd5b600080fd5b6000601f19601f8301169050919050565b50565b61160381611493565b811461160e57600080fd5b50565b61161a816114c5565b811461162557600080fd5b5056fea2646970667358221220f112aa2f644128902032c72ee5d6f98dc4062ee28bf18a66b77ab82d862e192564736f6c63430008070033",
  "linkReferences": {},
  "deployedLinkReferences": {}
}