{
  "_format": "hh-sol-artifact-1",
  "contractName": "Damazon",
  "sourceName": "contracts/Damazon.sol",
  "abi": [
    {
      "inputs": [
        {
          "internalType": "string",
          "name": "name",
          "type": "string"
        }
      ],
      "stateMutability": "nonpayable",
      "type": "constructor"
    },
    {
      "inputs": [],
      "name": "Damazon__NotEnoughEthSent",
      "type": "error"
    },
    {
      "inputs": [],
      "name": "Damazon__NotOwner",
      "type": "error"
    },
    {
      "inputs": [],
      "name": "Damazon__OutOfStock",
      "type": "error"
    },
    {
      "inputs": [],
      "name": "Damazon__TransactionFailed",
      "type": "error"
    },
    {
      "anonymous": false,
      "inputs": [
        {
          "indexed": true,
          "internalType": "address",
          "name": "_buyer",
          "type": "address"
        },
        {
          "indexed": true,
          "internalType": "uint256",
          "name": "_orderCount",
          "type": "uint256"
        },
        {
          "indexed": true,
          "internalType": "uint256",
          "name": "_itemId",
          "type": "uint256"
        }
      ],
      "name": "Buy_Item",
      "type": "event"
    },
    {
      "anonymous": false,
      "inputs": [
        {
          "indexed": true,
          "internalType": "string",
          "name": "_name",
          "type": "string"
        },
        {
          "indexed": true,
          "internalType": "uint256",
          "name": "_cost",
          "type": "uint256"
        },
        {
          "indexed": true,
          "internalType": "uint256",
          "name": "_quantity",
          "type": "uint256"
        }
      ],
      "name": "Item_Listed",
      "type": "event"
    },
    {
      "inputs": [
        {
          "internalType": "uint256",
          "name": "_id",
          "type": "uint256"
        }
      ],
      "name": "Buy",
      "outputs": [],
      "stateMutability": "payable",
      "type": "function"
    },
    {
      "inputs": [
        {
          "internalType": "uint256",
          "name": "_id",
          "type": "uint256"
        },
        {
          "internalType": "string",
          "name": "_name",
          "type": "string"
        },
        {
          "internalType": "string",
          "name": "_category",
          "type": "string"
        },
        {
          "internalType": "string",
          "name": "_image",
          "type": "string"
        },
        {
          "internalType": "uint256",
          "name": "_cost",
          "type": "uint256"
        },
        {
          "internalType": "uint256",
          "name": "_rating",
          "type": "uint256"
        },
        {
          "internalType": "uint256",
          "name": "_stock",
          "type": "uint256"
        }
      ],
      "name": "List",
      "outputs": [],
      "stateMutability": "nonpayable",
      "type": "function"
    },
    {
      "inputs": [],
      "name": "getName",
      "outputs": [
        {
          "internalType": "string",
          "name": "",
          "type": "string"
        }
      ],
      "stateMutability": "view",
      "type": "function"
    },
    {
      "inputs": [],
      "name": "getOwner",
      "outputs": [
        {
          "internalType": "address",
          "name": "",
          "type": "address"
        }
      ],
      "stateMutability": "view",
      "type": "function"
    },
    {
      "inputs": [
        {
          "internalType": "uint256",
          "name": "",
          "type": "uint256"
        }
      ],
      "name": "items",
      "outputs": [
        {
          "internalType": "uint256",
          "name": "id",
          "type": "uint256"
        },
        {
          "internalType": "string",
          "name": "name",
          "type": "string"
        },
        {
          "internalType": "string",
          "name": "category",
          "type": "string"
        },
        {
          "internalType": "string",
          "name": "image",
          "type": "string"
        },
        {
          "internalType": "uint256",
          "name": "cost",
          "type": "uint256"
        },
        {
          "internalType": "uint256",
          "name": "rating",
          "type": "uint256"
        },
        {
          "internalType": "uint256",
          "name": "stock",
          "type": "uint256"
        }
      ],
      "stateMutability": "view",
      "type": "function"
    },
    {
      "inputs": [
        {
          "internalType": "address",
          "name": "",
          "type": "address"
        }
      ],
      "name": "orderCount",
      "outputs": [
        {
          "internalType": "uint256",
          "name": "",
          "type": "uint256"
        }
      ],
      "stateMutability": "view",
      "type": "function"
    },
    {
      "inputs": [
        {
          "internalType": "address",
          "name": "",
          "type": "address"
        },
        {
          "internalType": "uint256",
          "name": "",
          "type": "uint256"
        }
      ],
      "name": "orders",
      "outputs": [
        {
          "internalType": "uint256",
          "name": "time",
          "type": "uint256"
        },
        {
          "components": [
            {
              "internalType": "uint256",
              "name": "id",
              "type": "uint256"
            },
            {
              "internalType": "string",
              "name": "name",
              "type": "string"
            },
            {
              "internalType": "string",
              "name": "category",
              "type": "string"
            },
            {
              "internalType": "string",
              "name": "image",
              "type": "string"
            },
            {
              "internalType": "uint256",
              "name": "cost",
              "type": "uint256"
            },
            {
              "internalType": "uint256",
              "name": "rating",
              "type": "uint256"
            },
            {
              "internalType": "uint256",
              "name": "stock",
              "type": "uint256"
            }
          ],
          "internalType": "struct Damazon.Item",
          "name": "item",
          "type": "tuple"
        }
      ],
      "stateMutability": "view",
      "type": "function"
    },
    {
      "inputs": [],
      "name": "withdraw",
      "outputs": [],
      "stateMutability": "nonpayable",
      "type": "function"
    }
  ],
  "bytecode": "0x60a06040523480156200001157600080fd5b5060405162001a9138038062001a918339818101604052810190620000379190620001bc565b80600090805190602001906200004f9291906200008e565b503373ffffffffffffffffffffffffffffffffffffffff1660808173ffffffffffffffffffffffffffffffffffffffff1660601b815250505062000391565b8280546200009c90620002a2565b90600052602060002090601f016020900481019282620000c057600085556200010c565b82601f10620000db57805160ff19168380011785556200010c565b828001600101855582156200010c579182015b828111156200010b578251825591602001919060010190620000ee565b5b5090506200011b91906200011f565b5090565b5b808211156200013a57600081600090555060010162000120565b5090565b6000620001556200014f8462000236565b6200020d565b90508281526020810184848401111562000174576200017362000371565b5b620001818482856200026c565b509392505050565b600082601f830112620001a157620001a06200036c565b5b8151620001b38482602086016200013e565b91505092915050565b600060208284031215620001d557620001d46200037b565b5b600082015167ffffffffffffffff811115620001f657620001f562000376565b5b620002048482850162000189565b91505092915050565b6000620002196200022c565b9050620002278282620002d8565b919050565b6000604051905090565b600067ffffffffffffffff8211156200025457620002536200033d565b5b6200025f8262000380565b9050602081019050919050565b60005b838110156200028c5780820151818401526020810190506200026f565b838111156200029c576000848401525b50505050565b60006002820490506001821680620002bb57607f821691505b60208210811415620002d257620002d16200030e565b5b50919050565b620002e38262000380565b810181811067ffffffffffffffff821117156200030557620003046200033d565b5b80604052505050565b7f4e487b7100000000000000000000000000000000000000000000000000000000600052602260045260246000fd5b7f4e487b7100000000000000000000000000000000000000000000000000000000600052604160045260246000fd5b600080fd5b600080fd5b600080fd5b600080fd5b6000601f19601f8301169050919050565b60805160601c6116cc620003c5600039600081816101f101528181610423015281816104aa0152610c6501526116cc6000f3fe60806040526004361061007a5760003560e01c8063713d856b1161004e578063713d856b14610106578063793b8c6d14610143578063893d20e814610181578063bfb231d2146101ac5761007a565b8062187f561461007f57806317d7de7c146100a85780633ccfd60b146100d35780633e328218146100ea575b600080fd5b34801561008b57600080fd5b506100a660048036038101906100a1919061103a565b6101ef565b005b3480156100b457600080fd5b506100bd61038f565b6040516100ca9190611314565b60405180910390f35b3480156100df57600080fd5b506100e8610421565b005b61010460048036038101906100ff919061100d565b61056c565b005b34801561011257600080fd5b5061012d60048036038101906101289190610fa0565b610a30565b60405161013a9190611336565b60405180910390f35b34801561014f57600080fd5b5061016a60048036038101906101659190610fcd565b610a48565b6040516101789291906113d5565b60405180910390f35b34801561018d57600080fd5b50610196610c61565b6040516101a391906112f9565b60405180910390f35b3480156101b857600080fd5b506101d360048036038101906101ce919061100d565b610c89565b6040516101e69796959493929190611351565b60405180910390f35b7f000000000000000000000000000000000000000000000000000000000000000073ffffffffffffffffffffffffffffffffffffffff163373ffffffffffffffffffffffffffffffffffffffff1614610274576040517f0a2869f400000000000000000000000000000000000000000000000000000000815260040160405180910390fd5b60006040518060e0016040528089815260200188815260200187815260200186815260200185815260200184815260200183815250905080600160008a81526020019081526020016000206000820151816000015560208201518160010190805190602001906102e5929190610e63565b506040820151816002019080519060200190610302929190610e63565b50606082015181600301908051906020019061031f929190610e63565b506080820151816004015560a0820151816005015560c0820151816006015590505081848860405161035191906112cd565b60405180910390207f0ba7a4ecab881a8a08cb87846c42fdf7e28c4fcae5aaf641bd18d107bd1f5ee460405160405180910390a45050505050505050565b60606000805461039e90611550565b80601f01602080910402602001604051908101604052809291908181526020018280546103ca90611550565b80156104175780601f106103ec57610100808354040283529160200191610417565b820191906000526020600020905b8154815290600101906020018083116103fa57829003601f168201915b5050505050905090565b7f000000000000000000000000000000000000000000000000000000000000000073ffffffffffffffffffffffffffffffffffffffff163373ffffffffffffffffffffffffffffffffffffffff16146104a6576040517f0a2869f400000000000000000000000000000000000000000000000000000000815260040160405180910390fd5b60007f000000000000000000000000000000000000000000000000000000000000000073ffffffffffffffffffffffffffffffffffffffff16476040516104ec906112e4565b60006040518083038185875af1925050503d8060008114610529576040519150601f19603f3d011682016040523d82523d6000602084013e61052e565b606091505b5050905080610569576040517f7b22975400000000000000000000000000000000000000000000000000000000815260040160405180910390fd5b50565b6000600160008381526020019081526020016000206040518060e0016040529081600082015481526020016001820180546105a690611550565b80601f01602080910402602001604051908101604052809291908181526020018280546105d290611550565b801561061f5780601f106105f45761010080835404028352916020019161061f565b820191906000526020600020905b81548152906001019060200180831161060257829003601f168201915b5050505050815260200160028201805461063890611550565b80601f016020809104026020016040519081016040528092919081815260200182805461066490611550565b80156106b15780601f10610686576101008083540402835291602001916106b1565b820191906000526020600020905b81548152906001019060200180831161069457829003601f168201915b505050505081526020016003820180546106ca90611550565b80601f01602080910402602001604051908101604052809291908181526020018280546106f690611550565b80156107435780601f1061071857610100808354040283529160200191610743565b820191906000526020600020905b81548152906001019060200180831161072657829003601f168201915b505050505081526020016004820154815260200160058201548152602001600682015481525050905080608001513410156107aa576040517fd8c8b93200000000000000000000000000000000000000000000000000000000815260040160405180910390fd5b60008160c0015114156107e9576040517fac4edaa900000000000000000000000000000000000000000000000000000000815260040160405180910390fd5b60006040518060400160405280428152602001838152509050600260003373ffffffffffffffffffffffffffffffffffffffff1673ffffffffffffffffffffffffffffffffffffffff1681526020019081526020016000206000815480929190600101919050555080600360003373ffffffffffffffffffffffffffffffffffffffff1673ffffffffffffffffffffffffffffffffffffffff1681526020019081526020016000206000600260003373ffffffffffffffffffffffffffffffffffffffff1673ffffffffffffffffffffffffffffffffffffffff1681526020019081526020016000205481526020019081526020016000206000820151816000015560208201518160010160008201518160000155602082015181600101908051906020019061091a929190610e63565b506040820151816002019080519060200190610937929190610e63565b506060820151816003019080519060200190610954929190610e63565b506080820151816004015560a0820151816005015560c08201518160060155505090505060018260c00151610989919061149e565b60016000858152602001908152602001600020600601819055508160000151600260003373ffffffffffffffffffffffffffffffffffffffff1673ffffffffffffffffffffffffffffffffffffffff168152602001908152602001600020543373ffffffffffffffffffffffffffffffffffffffff167f70c58d8f59c8d124e23304b87093a9a4194036b3b6bc39fd9ec25976a4936c8560405160405180910390a4505050565b60026020528060005260406000206000915090505481565b600360205281600052604060002060205280600052604060002060009150915050806000015490806001016040518060e001604052908160008201548152602001600182018054610a9890611550565b80601f0160208091040260200160405190810160405280929190818152602001828054610ac490611550565b8015610b115780601f10610ae657610100808354040283529160200191610b11565b820191906000526020600020905b815481529060010190602001808311610af457829003601f168201915b50505050508152602001600282018054610b2a90611550565b80601f0160208091040260200160405190810160405280929190818152602001828054610b5690611550565b8015610ba35780601f10610b7857610100808354040283529160200191610ba3565b820191906000526020600020905b815481529060010190602001808311610b8657829003601f168201915b50505050508152602001600382018054610bbc90611550565b80601f0160208091040260200160405190810160405280929190818152602001828054610be890611550565b8015610c355780601f10610c0a57610100808354040283529160200191610c35565b820191906000526020600020905b815481529060010190602001808311610c1857829003601f168201915b505050505081526020016004820154815260200160058201548152602001600682015481525050905082565b60007f0000000000000000000000000000000000000000000000000000000000000000905090565b6001602052806000526040600020600091509050806000015490806001018054610cb290611550565b80601f0160208091040260200160405190810160405280929190818152602001828054610cde90611550565b8015610d2b5780601f10610d0057610100808354040283529160200191610d2b565b820191906000526020600020905b815481529060010190602001808311610d0e57829003601f168201915b505050505090806002018054610d4090611550565b80601f0160208091040260200160405190810160405280929190818152602001828054610d6c90611550565b8015610db95780601f10610d8e57610100808354040283529160200191610db9565b820191906000526020600020905b815481529060010190602001808311610d9c57829003601f168201915b505050505090806003018054610dce90611550565b80601f0160208091040260200160405190810160405280929190818152602001828054610dfa90611550565b8015610e475780601f10610e1c57610100808354040283529160200191610e47565b820191906000526020600020905b815481529060010190602001808311610e2a57829003601f168201915b5050505050908060040154908060050154908060060154905087565b828054610e6f90611550565b90600052602060002090601f016020900481019282610e915760008555610ed8565b82601f10610eaa57805160ff1916838001178555610ed8565b82800160010185558215610ed8579182015b82811115610ed7578251825591602001919060010190610ebc565b5b509050610ee59190610ee9565b5090565b5b80821115610f02576000816000905550600101610eea565b5090565b6000610f19610f148461142a565b611405565b905082815260208101848484011115610f3557610f34611645565b5b610f4084828561150e565b509392505050565b600081359050610f5781611668565b92915050565b600082601f830112610f7257610f71611640565b5b8135610f82848260208601610f06565b91505092915050565b600081359050610f9a8161167f565b92915050565b600060208284031215610fb657610fb561164f565b5b6000610fc484828501610f48565b91505092915050565b60008060408385031215610fe457610fe361164f565b5b6000610ff285828601610f48565b925050602061100385828601610f8b565b9150509250929050565b6000602082840312156110235761102261164f565b5b600061103184828501610f8b565b91505092915050565b600080600080600080600060e0888a0312156110595761105861164f565b5b60006110678a828b01610f8b565b975050602088013567ffffffffffffffff8111156110885761108761164a565b5b6110948a828b01610f5d565b965050604088013567ffffffffffffffff8111156110b5576110b461164a565b5b6110c18a828b01610f5d565b955050606088013567ffffffffffffffff8111156110e2576110e161164a565b5b6110ee8a828b01610f5d565b94505060806110ff8a828b01610f8b565b93505060a06111108a828b01610f8b565b92505060c06111218a828b01610f8b565b91505092959891949750929550565b611139816114d2565b82525050565b600061114a8261145b565b6111548185611471565b935061116481856020860161151d565b61116d81611654565b840191505092915050565b60006111838261145b565b61118d8185611482565b935061119d81856020860161151d565b6111a681611654565b840191505092915050565b60006111bc8261145b565b6111c68185611493565b93506111d681856020860161151d565b80840191505092915050565b60006111ef600083611466565b91506111fa82611665565b600082019050919050565b600060e08301600083015161121d60008601826112af565b5060208301518482036020860152611235828261113f565b9150506040830151848203604086015261124f828261113f565b91505060608301518482036060860152611269828261113f565b915050608083015161127e60808601826112af565b5060a083015161129160a08601826112af565b5060c08301516112a460c08601826112af565b508091505092915050565b6112b881611504565b82525050565b6112c781611504565b82525050565b60006112d982846111b1565b915081905092915050565b60006112ef826111e2565b9150819050919050565b600060208201905061130e6000830184611130565b92915050565b6000602082019050818103600083015261132e8184611178565b905092915050565b600060208201905061134b60008301846112be565b92915050565b600060e082019050611366600083018a6112be565b81810360208301526113788189611178565b9050818103604083015261138c8188611178565b905081810360608301526113a08187611178565b90506113af60808301866112be565b6113bc60a08301856112be565b6113c960c08301846112be565b98975050505050505050565b60006040820190506113ea60008301856112be565b81810360208301526113fc8184611205565b90509392505050565b600061140f611420565b905061141b8282611582565b919050565b6000604051905090565b600067ffffffffffffffff82111561144557611444611611565b5b61144e82611654565b9050602081019050919050565b600081519050919050565b600081905092915050565b600082825260208201905092915050565b600082825260208201905092915050565b600081905092915050565b60006114a982611504565b91506114b483611504565b9250828210156114c7576114c66115b3565b5b828203905092915050565b60006114dd826114e4565b9050919050565b600073ffffffffffffffffffffffffffffffffffffffff82169050919050565b6000819050919050565b82818337600083830152505050565b60005b8381101561153b578082015181840152602081019050611520565b8381111561154a576000848401525b50505050565b6000600282049050600182168061156857607f821691505b6020821081141561157c5761157b6115e2565b5b50919050565b61158b82611654565b810181811067ffffffffffffffff821117156115aa576115a9611611565b5b80604052505050565b7f4e487b7100000000000000000000000000000000000000000000000000000000600052601160045260246000fd5b7f4e487b7100000000000000000000000000000000000000000000000000000000600052602260045260246000fd5b7f4e487b7100000000000000000000000000000000000000000000000000000000600052604160045260246000fd5b600080fd5b600080fd5b600080fd5b600080fd5b6000601f19601f8301169050919050565b50565b611671816114d2565b811461167c57600080fd5b50565b61168881611504565b811461169357600080fd5b5056fea2646970667358221220ad13407b7b8f7cc292ecc82a0fc34cd603237a892d405b4820ebe69b6529f3ac64736f6c63430008070033",
  "linkReferences": {},
  "deployedLinkReferences": {}
}